{
  "_format": "hh-sol-artifact-1",
  "contractName": "Donation",
  "sourceName": "contracts/Dapp.sol",
  "abi": [
    {
      "inputs": [],
      "stateMutability": "nonpayable",
      "type": "constructor"
    },
    {
      "inputs": [],
      "name": "getMemos",
      "outputs": [
        {
          "components": [
            {
              "internalType": "string",
              "name": "name",
              "type": "string"
            },
            {
              "internalType": "string",
              "name": "message",
              "type": "string"
            },
            {
              "internalType": "uint256",
              "name": "timestamp",
              "type": "uint256"
            },
            {
              "internalType": "address",
              "name": "from",
              "type": "address"
            }
          ],
          "internalType": "struct Donation.Memo[]",
          "name": "",
          "type": "tuple[]"
        }
      ],
      "stateMutability": "view",
      "type": "function"
    },
    {
      "inputs": [
        {
          "internalType": "string",
          "name": "name",
          "type": "string"
        },
        {
          "internalType": "string",
          "name": "message",
          "type": "string"
        }
      ],
      "name": "receive_donation",
      "outputs": [],
      "stateMutability": "payable",
      "type": "function"
    }
  ],
  "bytecode": "0x608060405234801561001057600080fd5b5033600160006101000a81548173ffffffffffffffffffffffffffffffffffffffff021916908373ffffffffffffffffffffffffffffffffffffffff160217905550610b7c806100616000396000f3fe6080604052600436106100295760003560e01c80636e4cd3eb1461002e578063865c51721461004a575b600080fd5b61004860048036038101906100439190610543565b610075565b005b34801561005657600080fd5b5061005f610206565b60405161006c91906107c9565b60405180910390f35b600034116100b8576040517f08c379a00000000000000000000000000000000000000000000000000000000081526004016100af90610848565b60405180910390fd5b600160009054906101000a900473ffffffffffffffffffffffffffffffffffffffff1673ffffffffffffffffffffffffffffffffffffffff166108fc349081150290604051600060405180830381858888f19350505050158015610120573d6000803e3d6000fd5b50600060405180608001604052808481526020018381526020014281526020013373ffffffffffffffffffffffffffffffffffffffff16815250908060018154018082558091505060019003906000526020600020906004020160009091909190915060008201518160000190816101989190610a74565b5060208201518160010190816101ae9190610a74565b506040820151816002015560608201518160030160006101000a81548173ffffffffffffffffffffffffffffffffffffffff021916908373ffffffffffffffffffffffffffffffffffffffff16021790555050505050565b60606000805480602002602001604051908101604052809291908181526020016000905b828210156103e0578382906000526020600020906004020160405180608001604052908160008201805461025d90610897565b80601f016020809104026020016040519081016040528092919081815260200182805461028990610897565b80156102d65780601f106102ab576101008083540402835291602001916102d6565b820191906000526020600020905b8154815290600101906020018083116102b957829003601f168201915b505050505081526020016001820180546102ef90610897565b80601f016020809104026020016040519081016040528092919081815260200182805461031b90610897565b80156103685780601f1061033d57610100808354040283529160200191610368565b820191906000526020600020905b81548152906001019060200180831161034b57829003601f168201915b50505050508152602001600282015481526020016003820160009054906101000a900473ffffffffffffffffffffffffffffffffffffffff1673ffffffffffffffffffffffffffffffffffffffff1673ffffffffffffffffffffffffffffffffffffffff16815250508152602001906001019061022a565b50505050905090565b6000604051905090565b600080fd5b600080fd5b600080fd5b600080fd5b6000601f19601f8301169050919050565b7f4e487b7100000000000000000000000000000000000000000000000000000000600052604160045260246000fd5b61045082610407565b810181811067ffffffffffffffff8211171561046f5761046e610418565b5b80604052505050565b60006104826103e9565b905061048e8282610447565b919050565b600067ffffffffffffffff8211156104ae576104ad610418565b5b6104b782610407565b9050602081019050919050565b82818337600083830152505050565b60006104e66104e184610493565b610478565b90508281526020810184848401111561050257610501610402565b5b61050d8482856104c4565b509392505050565b600082601f83011261052a576105296103fd565b5b813561053a8482602086016104d3565b91505092915050565b6000806040838503121561055a576105596103f3565b5b600083013567ffffffffffffffff811115610578576105776103f8565b5b61058485828601610515565b925050602083013567ffffffffffffffff8111156105a5576105a46103f8565b5b6105b185828601610515565b9150509250929050565b600081519050919050565b600082825260208201905092915050565b6000819050602082019050919050565b600081519050919050565b600082825260208201905092915050565b60005b83811015610621578082015181840152602081019050610606565b83811115610630576000848401525b50505050565b6000610641826105e7565b61064b81856105f2565b935061065b818560208601610603565b61066481610407565b840191505092915050565b6000819050919050565b6106828161066f565b82525050565b600073ffffffffffffffffffffffffffffffffffffffff82169050919050565b60006106b382610688565b9050919050565b6106c3816106a8565b82525050565b600060808301600083015184820360008601526106e68282610636565b915050602083015184820360208601526107008282610636565b91505060408301516107156040860182610679565b50606083015161072860608601826106ba565b508091505092915050565b600061073f83836106c9565b905092915050565b6000602082019050919050565b600061075f826105bb565b61076981856105c6565b93508360208202850161077b856105d7565b8060005b858110156107b757848403895281516107988582610733565b94506107a383610747565b925060208a0199505060018101905061077f565b50829750879550505050505092915050565b600060208201905081810360008301526107e38184610754565b905092915050565b600082825260208201905092915050565b7f20506c6561736520706179206d6f7265207468616e207a65726f000000000000600082015250565b6000610832601a836107eb565b915061083d826107fc565b602082019050919050565b6000602082019050818103600083015261086181610825565b9050919050565b7f4e487b7100000000000000000000000000000000000000000000000000000000600052602260045260246000fd5b600060028204905060018216806108af57607f821691505b6020821081036108c2576108c1610868565b5b50919050565b60008190508160005260206000209050919050565b60006020601f8301049050919050565b600082821b905092915050565b60006008830261092a7fffffffffffffffffffffffffffffffffffffffffffffffffffffffffffffffff826108ed565b61093486836108ed565b95508019841693508086168417925050509392505050565b6000819050919050565b600061097161096c6109678461066f565b61094c565b61066f565b9050919050565b6000819050919050565b61098b83610956565b61099f61099782610978565b8484546108fa565b825550505050565b600090565b6109b46109a7565b6109bf818484610982565b505050565b5b818110156109e3576109d86000826109ac565b6001810190506109c5565b5050565b601f821115610a28576109f9816108c8565b610a02846108dd565b81016020851015610a11578190505b610a25610a1d856108dd565b8301826109c4565b50505b505050565b600082821c905092915050565b6000610a4b60001984600802610a2d565b1980831691505092915050565b6000610a648383610a3a565b9150826002028217905092915050565b610a7d826105e7565b67ffffffffffffffff811115610a9657610a95610418565b5b610aa08254610897565b610aab8282856109e7565b600060209050601f831160018114610ade5760008415610acc578287015190505b610ad68582610a58565b865550610b3e565b601f198416610aec866108c8565b60005b82811015610b1457848901518255600182019150602085019450602081019050610aef565b86831015610b315784890151610b2d601f891682610a3a565b8355505b6001600288020188555050505b50505050505056fea2646970667358221220a5b44754ea0ade3279e6ee6ca394d6a271d0fab61053dd0d1f02dd2cdfffa3b964736f6c634300080f0033",
  "linkReferences": {},
  "deployedLinkReferences": {}
}